{
  "_format": "hh3-artifact-1",
  "contractName": "AerodromeTWAPOracle",
  "sourceName": "contracts/AerodromeTWAPOracle.sol",
  "abi": [
    {
      "inputs": [
        {
          "internalType": "address",
          "name": "pool_",
          "type": "address"
        },
        {
          "internalType": "address",
          "name": "fairToken_",
          "type": "address"
        },
        {
          "internalType": "address",
          "name": "quoteToken_",
          "type": "address"
        },
        {
          "internalType": "uint32",
          "name": "twapWindow_",
          "type": "uint32"
        }
      ],
      "stateMutability": "nonpayable",
      "type": "constructor"
    },
    {
      "inputs": [],
      "name": "ORACLE_MULTIPLIER",
      "outputs": [
        {
          "internalType": "uint256",
          "name": "",
          "type": "uint256"
        }
      ],
      "stateMutability": "view",
      "type": "function"
    },
    {
      "inputs": [],
      "name": "decimalFactor",
      "outputs": [
        {
          "internalType": "uint256",
          "name": "",
          "type": "uint256"
        }
      ],
      "stateMutability": "view",
      "type": "function"
    },
    {
      "inputs": [],
      "name": "fairIsToken0",
      "outputs": [
        {
          "internalType": "bool",
          "name": "",
          "type": "bool"
        }
      ],
      "stateMutability": "view",
      "type": "function"
    },
    {
      "inputs": [],
      "name": "fairToken",
      "outputs": [
        {
          "internalType": "address",
          "name": "",
          "type": "address"
        }
      ],
      "stateMutability": "view",
      "type": "function"
    },
    {
      "inputs": [],
      "name": "getPrice",
      "outputs": [
        {
          "internalType": "uint256",
          "name": "price",
          "type": "uint256"
        }
      ],
      "stateMutability": "view",
      "type": "function"
    },
    {
      "inputs": [],
      "name": "getSpotPrice",
      "outputs": [
        {
          "internalType": "uint256",
          "name": "price",
          "type": "uint256"
        }
      ],
      "stateMutability": "view",
      "type": "function"
    },
    {
      "inputs": [],
      "name": "pool",
      "outputs": [
        {
          "internalType": "address",
          "name": "",
          "type": "address"
        }
      ],
      "stateMutability": "view",
      "type": "function"
    },
    {
      "inputs": [],
      "name": "quoteToken",
      "outputs": [
        {
          "internalType": "address",
          "name": "",
          "type": "address"
        }
      ],
      "stateMutability": "view",
      "type": "function"
    },
    {
      "inputs": [],
      "name": "twapWindow",
      "outputs": [
        {
          "internalType": "uint32",
          "name": "",
          "type": "uint32"
        }
      ],
      "stateMutability": "view",
      "type": "function"
    }
  ],
  "bytecode": "0x61014060405234801562000011575f80fd5b5060405162002418380380620024188339818101604052810190620000379190620006cc565b5f73ffffffffffffffffffffffffffffffffffffffff168473ffffffffffffffffffffffffffffffffffffffff1603620000a8576040517f08c379a00000000000000000000000000000000000000000000000000000000081526004016200009f9062000799565b60405180910390fd5b5f73ffffffffffffffffffffffffffffffffffffffff168373ffffffffffffffffffffffffffffffffffffffff160362000119576040517f08c379a0000000000000000000000000000000000000000000000000000000008152600401620001109062000807565b60405180910390fd5b5f73ffffffffffffffffffffffffffffffffffffffff168273ffffffffffffffffffffffffffffffffffffffff16036200018a576040517f08c379a0000000000000000000000000000000000000000000000000000000008152600401620001819062000875565b60405180910390fd5b5f8163ffffffff1611620001d5576040517f08c379a0000000000000000000000000000000000000000000000000000000008152600401620001cc90620008e3565b60405180910390fd5b8373ffffffffffffffffffffffffffffffffffffffff1660808173ffffffffffffffffffffffffffffffffffffffff16815250508273ffffffffffffffffffffffffffffffffffffffff1660a08173ffffffffffffffffffffffffffffffffffffffff16815250508173ffffffffffffffffffffffffffffffffffffffff1660c08173ffffffffffffffffffffffffffffffffffffffff16815250508063ffffffff1660e08163ffffffff16815250505f8473ffffffffffffffffffffffffffffffffffffffff16630dfe16816040518163ffffffff1660e01b8152600401602060405180830381865afa158015620002d0573d5f803e3d5ffd5b505050506040513d601f19601f82011682018060405250810190620002f6919062000903565b90505f8573ffffffffffffffffffffffffffffffffffffffff1663d21220a76040518163ffffffff1660e01b8152600401602060405180830381865afa15801562000343573d5f803e3d5ffd5b505050506040513d601f19601f8201168201806040525081019062000369919062000903565b90508473ffffffffffffffffffffffffffffffffffffffff168273ffffffffffffffffffffffffffffffffffffffff161480620003d157508473ffffffffffffffffffffffffffffffffffffffff168173ffffffffffffffffffffffffffffffffffffffff16145b62000413576040517f08c379a00000000000000000000000000000000000000000000000000000000081526004016200040a9062000981565b60405180910390fd5b8373ffffffffffffffffffffffffffffffffffffffff168273ffffffffffffffffffffffffffffffffffffffff1614806200047957508373ffffffffffffffffffffffffffffffffffffffff168173ffffffffffffffffffffffffffffffffffffffff16145b620004bb576040517f08c379a0000000000000000000000000000000000000000000000000000000008152600401620004b290620009ef565b60405180910390fd5b8473ffffffffffffffffffffffffffffffffffffffff168273ffffffffffffffffffffffffffffffffffffffff16141515610100811515815250505f8573ffffffffffffffffffffffffffffffffffffffff1663313ce5676040518163ffffffff1660e01b8152600401602060405180830381865afa15801562000541573d5f803e3d5ffd5b505050506040513d601f19601f8201168201806040525081019062000567919062000a4a565b90505f8573ffffffffffffffffffffffffffffffffffffffff1663313ce5676040518163ffffffff1660e01b8152600401602060405180830381865afa158015620005b4573d5f803e3d5ffd5b505050506040513d601f19601f82011682018060405250810190620005da919062000a4a565b90505f8160ff168360ff16620005f1919062000ab0565b905080600a62000602919062000c3a565b620f424062000612919062000c8a565b610120818152505050505050505050505062000cd4565b5f80fd5b5f73ffffffffffffffffffffffffffffffffffffffff82169050919050565b5f62000658826200062d565b9050919050565b6200066a816200064c565b811462000675575f80fd5b50565b5f8151905062000688816200065f565b92915050565b5f63ffffffff82169050919050565b620006a8816200068e565b8114620006b3575f80fd5b50565b5f81519050620006c6816200069d565b92915050565b5f805f8060808587031215620006e757620006e662000629565b5b5f620006f68782880162000678565b9450506020620007098782880162000678565b93505060406200071c8782880162000678565b92505060606200072f87828801620006b6565b91505092959194509250565b5f82825260208201905092915050565b7f506f6f6c207a65726f00000000000000000000000000000000000000000000005f82015250565b5f620007816009836200073b565b91506200078e826200074b565b602082019050919050565b5f6020820190508181035f830152620007b28162000773565b9050919050565b7f46414952207a65726f00000000000000000000000000000000000000000000005f82015250565b5f620007ef6009836200073b565b9150620007fc82620007b9565b602082019050919050565b5f6020820190508181035f8301526200082081620007e1565b9050919050565b7f51756f7465207a65726f000000000000000000000000000000000000000000005f82015250565b5f6200085d600a836200073b565b91506200086a8262000827565b602082019050919050565b5f6020820190508181035f8301526200088e816200084f565b9050919050565b7f57696e646f77207a65726f0000000000000000000000000000000000000000005f82015250565b5f620008cb600b836200073b565b9150620008d88262000895565b602082019050919050565b5f6020820190508181035f830152620008fc81620008bd565b9050919050565b5f602082840312156200091b576200091a62000629565b5b5f6200092a8482850162000678565b91505092915050565b7f46414952206e6f7420696e20706f6f6c000000000000000000000000000000005f82015250565b5f620009696010836200073b565b9150620009768262000933565b602082019050919050565b5f6020820190508181035f8301526200099a816200095b565b9050919050565b7f51756f7465206e6f7420696e20706f6f6c0000000000000000000000000000005f82015250565b5f620009d76011836200073b565b9150620009e482620009a1565b602082019050919050565b5f6020820190508181035f83015262000a0881620009c9565b9050919050565b5f60ff82169050919050565b62000a268162000a0f565b811462000a31575f80fd5b50565b5f8151905062000a448162000a1b565b92915050565b5f6020828403121562000a625762000a6162000629565b5b5f62000a718482850162000a34565b91505092915050565b5f819050919050565b7f4e487b71000000000000000000000000000000000000000000000000000000005f52601160045260245ffd5b5f62000abc8262000a7a565b915062000ac98362000a7a565b925082820390508181111562000ae45762000ae362000a83565b5b92915050565b5f8160011c9050919050565b5f808291508390505b600185111562000b475780860481111562000b1f5762000b1e62000a83565b5b600185161562000b2f5780820291505b808102905062000b3f8562000aea565b945062000aff565b94509492505050565b5f8262000b61576001905062000c33565b8162000b70575f905062000c33565b816001811462000b89576002811462000b945762000bca565b600191505062000c33565b60ff84111562000ba95762000ba862000a83565b5b8360020a91508482111562000bc35762000bc262000a83565b5b5062000c33565b5060208310610133831016604e8410600b841016171562000c045782820a90508381111562000bfe5762000bfd62000a83565b5b62000c33565b62000c13848484600162000af6565b9250905081840481111562000c2d5762000c2c62000a83565b5b81810290505b9392505050565b5f62000c468262000a7a565b915062000c538362000a7a565b925062000c827fffffffffffffffffffffffffffffffffffffffffffffffffffffffffffffffff848462000b50565b905092915050565b5f62000c968262000a7a565b915062000ca38362000a7a565b925082820262000cb38162000a7a565b9150828204841483151762000ccd5762000ccc62000a83565b5b5092915050565b60805160a05160c05160e05161010051610120516116b662000d625f395f818161021101528181610b0c01528181610b5601528181610b910152610c1c01525f81816102350152610abd01525f8181610259015281816103a501526105a501525f6101c901525f6101ed01525f81816101a5015281816102a60152818161042201526104bc01526116b65ff3fe608060405234801561000f575f80fd5b5060043610610091575f3560e01c80637d960db4116100645780637d960db41461010d5780638107e1331461012b57806398d5fdca14610149578063dc76fabc14610167578063e64b96751461018557610091565b806316f0115b14610095578063217a4b70146100b35780635202581d146100d15780636d6a6a4d146100ef575b5f80fd5b61009d6101a3565b6040516100aa9190610ccd565b60405180910390f35b6100bb6101c7565b6040516100c89190610ccd565b60405180910390f35b6100d96101eb565b6040516100e69190610ccd565b60405180910390f35b6100f761020f565b6040516101049190610cfe565b60405180910390f35b610115610233565b6040516101229190610d31565b60405180910390f35b610133610257565b6040516101409190610d68565b60405180910390f35b61015161027b565b60405161015e9190610cfe565b60405180910390f35b61016f6102a3565b60405161017c9190610cfe565b60405180910390f35b61018d61034e565b60405161019a9190610cfe565b60405180910390f35b7f000000000000000000000000000000000000000000000000000000000000000081565b7f000000000000000000000000000000000000000000000000000000000000000081565b7f000000000000000000000000000000000000000000000000000000000000000081565b7f000000000000000000000000000000000000000000000000000000000000000081565b7f000000000000000000000000000000000000000000000000000000000000000081565b7f000000000000000000000000000000000000000000000000000000000000000081565b5f80610285610355565b90505f61029182610617565b905061029c81610aa0565b9250505090565b5f7f000000000000000000000000000000000000000000000000000000000000000073ffffffffffffffffffffffffffffffffffffffff16633850c7bd6040518163ffffffff1660e01b815260040160e060405180830381865afa92505050801561032c57506040513d601f19601f820116820180604052508101906103299190610e89565b60015b610338575f905061034b565b61034187610aa0565b9750505050505050505b90565b620f424081565b5f80600267ffffffffffffffff81111561037257610371610f26565b5b6040519080825280602002602001820160405280156103a05781602001602082028036833780820191505090505b5090507f0000000000000000000000000000000000000000000000000000000000000000815f815181106103d7576103d6610f53565b5b602002602001019063ffffffff16908163ffffffff16815250505f8160018151811061040657610405610f53565b5b602002602001019063ffffffff16908163ffffffff16815250507f000000000000000000000000000000000000000000000000000000000000000073ffffffffffffffffffffffffffffffffffffffff1663883bdbfd826040518263ffffffff1660e01b81526004016104799190611037565b5f60405180830381865afa9250505080156104b657506040513d5f823e3d601f19601f820116820180604052508101906104b39190611270565b60015b61055e577f000000000000000000000000000000000000000000000000000000000000000073ffffffffffffffffffffffffffffffffffffffff16633850c7bd6040518163ffffffff1660e01b815260040160e060405180830381865afa92505050801561054257506040513d601f19601f8201168201806040525081019061053f9190610e89565b60015b61054e575f9150610559565b859850505050505050505b610613565b5f825f8151811061057257610571610f53565b5b60200260200101518360018151811061058e5761058d610f53565b5b60200260200101516105a09190611313565b90505f7f000000000000000000000000000000000000000000000000000000000000000063ffffffff16905080826105d8919061139e565b95505f8260060b1280156105fa57505f81836105f49190611406565b60060b14155b1561060e57858061060a90611436565b9650505b505050505b5090565b5f805f8360020b1261062c578260020b61063a565b8260020b61063990611486565b5b9050620d89e8811115610682576040517f08c379a000000000000000000000000000000000000000000000000000000000815260040161067990611526565b60405180910390fd5b5f8060018316036106a4577001000000000000000000000000000000006106b6565b6ffffcb933bd6fad37aa2d162d1a5940015b70ffffffffffffffffffffffffffffffffff1690505f60028316146106f85760806ffff97272373d413259a46990580e213a826106f39190611544565b901c90505b5f60048316146107255760806ffff2e50f5f656932ef12357cf3c7fdcc826107209190611544565b901c90505b5f60088316146107525760806fffe5caca7e10e4e61c3624eaa0941cd08261074d9190611544565b901c90505b5f601083161461077f5760806fffcb9843d60f6159c9db58835c9266448261077a9190611544565b901c90505b5f60208316146107ac5760806fff973b41fa98c081472e6896dfb254c0826107a79190611544565b901c90505b5f60408316146107d95760806fff2ea16466c96a3843ec78b326b52861826107d49190611544565b901c90505b5f60808316146108065760806ffe5dee046a99a2a811c461f1969c3053826108019190611544565b901c90505b5f6101008316146108345760806ffcbe86c7900a88aedcffc83b479aa3a48261082f9190611544565b901c90505b5f6102008316146108625760806ff987a7253ac413176f2b074cf7815e548261085d9190611544565b901c90505b5f6104008316146108905760806ff3392b0822b70005940c7a398e4b70f38261088b9190611544565b901c90505b5f6108008316146108be5760806fe7159475a2c29b7443b29c7fa6e889d9826108b99190611544565b901c90505b5f6110008316146108ec5760806fd097f3bdfd2022b8845ad8f792aa5825826108e79190611544565b901c90505b5f61200083161461091a5760806fa9f746462d870fdf8a65dc1f90e061e5826109159190611544565b901c90505b5f6140008316146109485760806f70d869a156d2a1b890bb3df62baf32f7826109439190611544565b901c90505b5f6180008316146109765760806f31be135f97d08fd981231505542fcfa6826109719190611544565b901c90505b5f620100008316146109a55760806f09aa508b5b7a84e1c677de54f3e99bc9826109a09190611544565b901c90505b5f620200008316146109d35760806e5d6af8dedb81196699c329225ee604826109ce9190611544565b901c90505b5f62040000831614610a005760806d2216e584f5fa1ea926041bedfe98826109fb9190611544565b901c90505b5f62080000831614610a2b5760806b048a170391f7dc42444e8fa282610a269190611544565b901c90505b5f8460020b1315610a6557807fffffffffffffffffffffffffffffffffffffffffffffffffffffffffffffffff610a629190611585565b90505b5f64010000000082610a7791906115b5565b14610a83576001610a85565b5f5b60ff16602082901c610a9791906115e5565b92505050919050565b5f808273ffffffffffffffffffffffffffffffffffffffff1690507f000000000000000000000000000000000000000000000000000000000000000015610bc8575f8182610aee9190611544565b9050700100000000000000000000000000000000821015610b8f575f7f000000000000000000000000000000000000000000000000000000000000000082610b369190611544565b905060c081901c93505f84148015610b4d57505f82115b15610b895760607f0000000000000000000000000000000000000000000000000000000000000000606084901c610b849190611544565b901c93505b50610bc2565b7f000000000000000000000000000000000000000000000000000000000000000060c082901c610bbf9190611544565b92505b50610c88565b5f8182610bd59190611544565b90505f8111610c19576040517f08c379a0000000000000000000000000000000000000000000000000000000008152600401610c1090611662565b60405180910390fd5b5f7f000000000000000000000000000000000000000000000000000000000000000060407801000000000000000000000000000000000000000000000000901c610c639190611544565b90505f604083901c90505f811115610c84578082610c819190611585565b94505b5050505b50919050565b5f73ffffffffffffffffffffffffffffffffffffffff82169050919050565b5f610cb782610c8e565b9050919050565b610cc781610cad565b82525050565b5f602082019050610ce05f830184610cbe565b92915050565b5f819050919050565b610cf881610ce6565b82525050565b5f602082019050610d115f830184610cef565b92915050565b5f8115159050919050565b610d2b81610d17565b82525050565b5f602082019050610d445f830184610d22565b92915050565b5f63ffffffff82169050919050565b610d6281610d4a565b82525050565b5f602082019050610d7b5f830184610d59565b92915050565b5f604051905090565b5f80fd5b5f80fd5b610d9b81610c8e565b8114610da5575f80fd5b50565b5f81519050610db681610d92565b92915050565b5f8160020b9050919050565b610dd181610dbc565b8114610ddb575f80fd5b50565b5f81519050610dec81610dc8565b92915050565b5f61ffff82169050919050565b610e0881610df2565b8114610e12575f80fd5b50565b5f81519050610e2381610dff565b92915050565b5f60ff82169050919050565b610e3e81610e29565b8114610e48575f80fd5b50565b5f81519050610e5981610e35565b92915050565b610e6881610d17565b8114610e72575f80fd5b50565b5f81519050610e8381610e5f565b92915050565b5f805f805f805f60e0888a031215610ea457610ea3610d8a565b5b5f610eb18a828b01610da8565b9750506020610ec28a828b01610dde565b9650506040610ed38a828b01610e15565b9550506060610ee48a828b01610e15565b9450506080610ef58a828b01610e15565b93505060a0610f068a828b01610e4b565b92505060c0610f178a828b01610e75565b91505092959891949750929550565b7f4e487b71000000000000000000000000000000000000000000000000000000005f52604160045260245ffd5b7f4e487b71000000000000000000000000000000000000000000000000000000005f52603260045260245ffd5b5f81519050919050565b5f82825260208201905092915050565b5f819050602082019050919050565b610fb281610d4a565b82525050565b5f610fc38383610fa9565b60208301905092915050565b5f602082019050919050565b5f610fe582610f80565b610fef8185610f8a565b9350610ffa83610f9a565b805f5b8381101561102a5781516110118882610fb8565b975061101c83610fcf565b925050600181019050610ffd565b5085935050505092915050565b5f6020820190508181035f83015261104f8184610fdb565b905092915050565b5f80fd5b5f601f19601f8301169050919050565b6110748261105b565b810181811067ffffffffffffffff8211171561109357611092610f26565b5b80604052505050565b5f6110a5610d81565b90506110b1828261106b565b919050565b5f67ffffffffffffffff8211156110d0576110cf610f26565b5b602082029050602081019050919050565b5f80fd5b5f8160060b9050919050565b6110fa816110e5565b8114611104575f80fd5b50565b5f81519050611115816110f1565b92915050565b5f61112d611128846110b6565b61109c565b905080838252602082019050602084028301858111156111505761114f6110e1565b5b835b8181101561117957806111658882611107565b845260208401935050602081019050611152565b5050509392505050565b5f82601f83011261119757611196611057565b5b81516111a784826020860161111b565b91505092915050565b5f67ffffffffffffffff8211156111ca576111c9610f26565b5b602082029050602081019050919050565b5f6111ed6111e8846111b0565b61109c565b905080838252602082019050602084028301858111156112105761120f6110e1565b5b835b8181101561123957806112258882610da8565b845260208401935050602081019050611212565b5050509392505050565b5f82601f83011261125757611256611057565b5b81516112678482602086016111db565b91505092915050565b5f806040838503121561128657611285610d8a565b5b5f83015167ffffffffffffffff8111156112a3576112a2610d8e565b5b6112af85828601611183565b925050602083015167ffffffffffffffff8111156112d0576112cf610d8e565b5b6112dc85828601611243565b9150509250929050565b7f4e487b71000000000000000000000000000000000000000000000000000000005f52601160045260245ffd5b5f61131d826110e5565b9150611328836110e5565b92508282039050667fffffffffffff81137fffffffffffffffffffffffffffffffffffffffffffffffffff800000000000008212171561136b5761136a6112e6565b5b92915050565b7f4e487b71000000000000000000000000000000000000000000000000000000005f52601260045260245ffd5b5f6113a8826110e5565b91506113b3836110e5565b9250826113c3576113c2611371565b5b60015f0383147fffffffffffffffffffffffffffffffffffffffffffffffffff80000000000000831416156113fb576113fa6112e6565b5b828205905092915050565b5f611410826110e5565b915061141b836110e5565b92508261142b5761142a611371565b5b828207905092915050565b5f61144082610dbc565b91507fffffffffffffffffffffffffffffffffffffffffffffffffffffffffff8000008203611472576114716112e6565b5b600182039050919050565b5f819050919050565b5f6114908261147d565b91507f800000000000000000000000000000000000000000000000000000000000000082036114c2576114c16112e6565b5b815f039050919050565b5f82825260208201905092915050565b7f5469636b204f4f420000000000000000000000000000000000000000000000005f82015250565b5f6115106008836114cc565b915061151b826114dc565b602082019050919050565b5f6020820190508181035f83015261153d81611504565b9050919050565b5f61154e82610ce6565b915061155983610ce6565b925082820261156781610ce6565b9150828204841483151761157e5761157d6112e6565b5b5092915050565b5f61158f82610ce6565b915061159a83610ce6565b9250826115aa576115a9611371565b5b828204905092915050565b5f6115bf82610ce6565b91506115ca83610ce6565b9250826115da576115d9611371565b5b828206905092915050565b5f6115ef82610ce6565b91506115fa83610ce6565b9250828201905080821115611612576116116112e6565b5b92915050565b7f5072696365207a65726f000000000000000000000000000000000000000000005f82015250565b5f61164c600a836114cc565b915061165782611618565b602082019050919050565b5f6020820190508181035f83015261167981611640565b905091905056fea2646970667358221220cfed175c4d3ca97e080c3e74703e1a52525240d3dc8f3c09e294824b6447bd8c64736f6c63430008180033",
  "linkReferences": {},
  "deployedLinkReferences": {},
  "immutableReferences": {
    "1561": [
      {
        "length": 32,
        "start": 421
      },
      {
        "length": 32,
        "start": 678
      },
      {
        "length": 32,
        "start": 1058
      },
      {
        "length": 32,
        "start": 1212
      }
    ],
    "1564": [
      {
        "length": 32,
        "start": 493
      }
    ],
    "1567": [
      {
        "length": 32,
        "start": 457
      }
    ],
    "1570": [
      {
        "length": 32,
        "start": 601
      },
      {
        "length": 32,
        "start": 933
      },
      {
        "length": 32,
        "start": 1445
      }
    ],
    "1573": [
      {
        "length": 32,
        "start": 565
      },
      {
        "length": 32,
        "start": 2749
      }
    ],
    "1576": [
      {
        "length": 32,
        "start": 529
      },
      {
        "length": 32,
        "start": 2828
      },
      {
        "length": 32,
        "start": 2902
      },
      {
        "length": 32,
        "start": 2961
      },
      {
        "length": 32,
        "start": 3100
      }
    ]
  },
  "inputSourceName": "project/contracts/AerodromeTWAPOracle.sol",
  "buildInfoId": "solc-0_8_24-c2c7cdb8115aa654f2b2edcc59521473c505de2c"
}